:020000040800F2
:10000000580A0020290200087F210008AF1E0008BE
:100010007D2100081F0400082529000800000000B9
:10002000000000000000000000000000072300089E
:1000300079050008000000000523000809230008D6
:10004000430200084302000843020008430200087C
:10005000430200084302000843020008430200086C
:10006000430200084302000843020008430200085C
:10007000C9040008430200084302000843020008C4
:10008000430200084302000843020008430200083C
:10009000210400084302000843020008430200084C
:1000A000430200084302000843020008430200081C
:1000B000430200084302000843020008430200080C
:1000C00043020008430200084302000843020008FC
:1000D00043020008430200084302000843020008EC
:1000E00043020008430200084302000843020008DC
:1000F00043020008430200084302000843020008CC
:1001000043020008430200084302000843020008BB
:1001100043020008430200084302000843020008AB
:10012000430200084302000843020008430200089B
:10013000430200084302000843020008430200088B
:100140002D0400084302000843020008430200088F
:10015000430200084302000843020008430200086B
:10016000430200084302000843020008430200085B
:100170004302000843020008430200080000000098
:10018000430200084302000800F002F800F03CF8C7
:100190000AA090E8000C82448344AAF10107DA45E2
:1001A00001D100F031F8AFF2090EBAE80F0013F0F8
:1001B000010F18BFFB1A43F0010318471C2C000065
:1001C0003C2C0000103A24BF78C878C1FAD85207F6
:1001D00024BF30C830C144BF04680C6070470000C1
:1001E0000023002400250026103A28BF78C1FBD840
:1001F000520728BF30C148BF0B6070471FB502F0DF
:10020000CFFD1FBD10B510BD00F0CFF81146FFF7B0
:10021000F5FF02F083FC00F0EDF803B4FFF7F2FF06
:1002200003BC00F0F5F80000094880470948004782
:10023000FEE7FEE7FEE7FEE7FEE7FEE7FEE7FEE796
:10024000FEE7FEE704480549054A064B70470000F3
:10025000A12300088901000858040020580A002042
:10026000580600205806002053EA020C00F069806E
:100270002DE9F04B4FF00006002B1FBFB3FA83F5BA
:1002800003FA05F424FA05F65E4012BF1643B2FAEB
:1002900082F502FA05F4C5F120051EBF22FA05FC1D
:1002A00044EA0C04203556EA044C4FEA144418BFC3
:1002B000641C4FF000084FF00009904271EB030CF2
:1002C00039D3002919BFB1FA81F701FA07F6B0FA5C
:1002D00080F700FA07F6C7F120071EBF20FA07FCD7
:1002E00046EA0C062037B6FBF4FCA7EB0507103FE7
:1002F00007F01F0BCBF120060CFA0BFB2CFA06F6CD
:1003000044BFB3460026202FA4BF5E464FF0000B2B
:100310005BEA060C08BF4FF0010B19EB0B09ABFBB6
:10032000027C48EB0608C01B06FB02CC0BFB03CC8F
:1003300071EB0C01C1E70B46024641464846BDE859
:10034000F08B13B54FF000004FF00001AFF30080C9
:10035000BDE81C4070474FF0000200B513469446BC
:100360009646203922BFA0E80C50A0E80C50B1F10D
:100370002001BFF4F7AF090728BFA0E80C5048BF21
:100380000CC05DF804EB890028BF40F8042B08BFBF
:10039000704748BF20F8022B11F0804F18BF00F8BB
:1003A000012B7047704770477047754600F02CF876
:1003B000AE4605006946534620F00700854618B052
:1003C00020B5FFF73FFFBDE820404FF000064FF09B
:1003D00000074FF000084FF0000B21F00701AC467A
:1003E000ACE8C009ACE8C009ACE8C009ACE8C00999
:1003F0008D46704710B50446AFF300802046BDE837
:100400001040FFF70ABF000000487047F8030020C3
:1004100001491820ABBEFEE7260002007047FEE748
:10042000014800F01EBA000070020020014800F0F0
:1004300018BA00009802002038B50E4C4FF4007531
:1004400025600025A560E560082525610A4C050AA0
:1004500025706070080AA070E170100A2071627146
:10046000180AA071E3716B4622460249034800F066
:1004700098F838BD8C000020090000207002002090
:1004800038B50E4C40F2FF1525600025A560E560EB
:10049000082525610A4C050A25706070080AA070BD
:1004A000E170100A20716271180AA071E3716B4645
:1004B00022460249034800F074F838BD7400002059
:1004C0000100002070020020014800F03FBC000045
:1004D0009803002001681823CAB2103AB2FBF3F265
:1004E000054B6FF30901032A9B5CC36500D9091D05
:1004F0008165084670470000B82D000810B5014618
:1005000000208B698A6A4FF0C07453B1B3F5005F65
:1005100015D072B1012A0CD0022A0AD0032A09D1BF
:1005200004E01AB1012A06D0022A03D1C96AC9011E
:1005300000D5012010BDC96AA142FAD010BD002A21
:10054000F7D0012AF2D0022AF3D0032AF3D010BD4B
:1005500030B50468256825F480252560046863604B
:100560008368402B036803D099600068C26030BD87
:100570009A600068C16030BD704772B6FEE790F8BF
:100580002020012A07D0022A05D0416A41F48021A7
:10059000416201207047006842690A4342610020BD
:1005A0007047F0B590F820500468A468012D05D07C
:1005B000022D03D0416A41F480214DE014F0406FD8
:1005C00001D1E50045D5C4F301640125A5401D60B6
:1005D0008D684FF4C0739DB1CE6835434E6845EACF
:1005E000C605066803EB0417F5514FF4C27507689A
:1005F00005EB04150E697E51097D012905D009E03E
:100600000E88CD6845EA4655EBE701684E5946F439
:1006100080764E511179D2F805504FF4C67641EAF2
:100620000521056806EB0416A9511178D2F80120BE
:100630004FF4C47541EA0221026805EB04155151DB
:10064000006803EB0411425842F0010242500020BE
:10065000F0BD416A41F4001141620120F0BD00008B
:1006600010B590F82020012A07D0022A05D0416A4F
:1006700041F480214162012010BD3B48D0F80022A6
:1006800042F00102C0F80022D0F8002222F47C528D
:10069000C0F80022D0F800224B6A42EA0322C0F8D8
:1006A00000220A7D02F01F0301229A40D0F81C327A
:1006B0009343C0F81C32CB69B3B9D0F80C329343E2
:1006C000C0F80C328C894B6864F31F434C6900EB13
:1006D000C404C4F840320C890B6864F31F434C69AE
:1006E00000EBC404C4F84432CB69012B16D1D0F816
:1006F0000C321343C0F80C320C884B6864F31F4370
:100700004C6900EBC404C4F840320C89CB6864F334
:100710001F434C6900EBC404C4F844328B69002BBE
:10072000D0F804320ED01343C0F804320B69002B0A
:10073000D0F8143208D01343C0F81432096A0129E2
:1007400004D008E09343EFE79343F5E7D0F81C1299
:100750001143C0F81C12D0F8001221F00101C0F8BA
:100760000012002010BD000000640040704770B50A
:1007700090F82040012C05D0022C03D0416A41F4AE
:10078000802128E0046809B32469A40720D04FF42D
:10079000D874056804EB01142D5915F00405956013
:1007A00005682D591AD0ED08556005682C5904F0DC
:1007B0000204D4604FF4DA74056804EB01142E5976
:1007C00006F00F06082E0CD308250DE0E468DCE7E0
:1007D000416A41F400114162012070BD6D0D156048
:1007E000E3E72D5905F00F05156105682D59C5F38F
:1007F0000725956105682C59240C54614FF4DC726F
:10080000046802EB0112A4581C700468A458240A5E
:100810005C700468A458240C9C700468A258120EE2
:10082000DA704FF4DE72046802EB0112A4581C71F6
:100830000468A458240A5C710468A458240C9C71B0
:100840000468A258120EDA71006829B1016941F0FA
:1008500020010161002070BDC16841F02001C1602C
:10086000F8E72DE9F05F0546006800244669D0F8F6
:1008700004908768D0F80CB0D0F810A0D0F8188099
:10088000F10748D0F90714D001218160B80703D5DA
:10089000284600F054FA0CE0780702D54FF40064C3
:1008A00007E0380702D54FF4805402E0284600F0F4
:1008B00045FAF80516D529684FF480708860B805A8
:1008C00003D5284600F03DFA0CE0780502D544F443
:1008D000005407E0380502D544F4804402E028467D
:1008E00000F02EFAF80316D529684FF4803088609E
:1008F000B80303D5284600F026FA0CE0780302D5A9
:1009000044F4004407E0380302D544F4803402E0A4
:10091000284600F017FA300707D55FEACB6004D508
:100920002968102044F40074C86070074FF008076D
:1009300007D55FEA0B7004D52868C760284600F029
:100940009DF9B00706D52868C068800702D0284600
:1009500000F096F9700607D55FEACA6004D52968E9
:10096000102044F480640861B00607D55FEA0A707D
:1009700004D528680761284600F0B0F9F00606D5CE
:1009800028680069800702D0284600F0A8F9B00363
:1009900008D55FEAC96005D5296810204860284657
:1009A00000F09EF9F00307D55FEA097004D52868C6
:1009B0004760284600F0C8F9300446D55FEA497020
:1009C00040D5F00504D55FEAC87001D044F00104B9
:1009D000B00504D55FEA887001D544F002047005C3
:1009E00004D55FEA487001D544F00404300529D5E8
:1009F00018F0700F26D008F07000402815D006DCE3
:100A0000102809D020280AD0302816D10AE0502812
:100A10000ED0602811D10EE044F008040DE044F03F
:100A200010040AE044F0200407E044F0400404E02D
:100A300044F0800401E044F480742868816921F066
:100A400070018161296804204860002C05D0686A23
:100A5000204368622846FFF789FEBDE8F09F70B525
:100A6000040003D094F8200010B104E0012070BD10
:100A7000204600F081F82068016841F00101016022
:100A800000F0E0FB0546052604E000F0DBFB401B20
:100A90000A2811D820684068C007F6D0206801688D
:100AA00021F00201016000F0CDFB05460BE000F0F3
:100AB000C9FB401B0A2806D9606A40F40030606216
:100AC00084F82060D2E7206840688007EFD4207E59
:100AD0000128206801683DD021F080010160607E1E
:100AE00001282068016838D021F040010160A07E13
:100AF00001282068016833D021F020010160E07EE8
:100B00000128206801682ED041F010010160207F8B
:100B100001282068016829D021F008010160607F68
:100B200001282068016824D021F004010160D4E983
:100B300002010843D4E90412114308436168491EC5
:100B400008432168C86100206062012084F8200009
:100B5000002070BD41F08001C0E741F04001C5E7D1
:100B600041F02001CAE721F01001CFE741F0080170
:100B7000D4E741F00401D9E72DE9F04387B00446FA
:100B800014216846FFF7E7FB384B3948DFF8D88077
:100B90001968D4F800C0364A022503260927DFF871
:100BA000D49010300024491CC44524D11960012977
:100BB00007D1016841F000710160006800F0007029
:100BC0000590106840F002001060106802AB00F061
:100BD000020005904FF44070CDE9000583E8D00095
:100BE0006946484600F036FA00221146142000F00B
:100BF00097FB142032E0DFF88080C44530D1D0F874
:100C000000C04CF0806CC0F800C0D0F800C00129D2
:100C10000CF0806CCDF814C0196007D1016841F068
:100C200000710160006800F000700590106840F0ED
:100C300002001060106802AB00F002000590602016
:100C4000CDE9000583E8D0006946484600F002FA85
:100C500000221146402000F063FB402000F052FBD0
:100C600007B0BDE8F08300000064004018000020D9
:100C70003038024000040240006800407047000025
:100C800000B58BB001AB03AA0021FFF770FD0398FC
:100C9000A0F2012006281AD80E49C0B200EB80024B
:100CA00008700D4901EB420031F812300381BDF8A4
:100CB00004305BBA21F81230BDF8061049BA418001
:100CC000BDF8081049BA81809DF80A1081710BB0F7
:100CD00000BD0000000000202C000020704770477D
:100CE0007047000070B5044690F82000012804D039
:100CF000606A40F40020606218E0022084F820005E
:100D00002068016821F00101016000F09BFA0546AE
:100D10000EE000BF00F096FA401B0A2808D9606A6E
:100D200040F400306062052084F82000012070BD8E
:100D300020684068C007EDD1606270BD70477047A1
:100D40007047704770477047704700002DE9F843BF
:100D500004464FF00009CDF8009063484FF4165157
:100D6000A56D0068B0FBF1F72E6894F85C100820C0
:100D700000FA01F131420FD021680A6852070BD501
:100D80000A6822F004020A6094F85C108840A860A7
:100D9000606D40F00100606594F85C104FF0010850
:100DA00008FA01F0304208D021684969090604D5E3
:100DB000A860606D40F00200606594F85C1004204B
:100DC0008840304208D021680968890704D5A860A6
:100DD000606D40F00400606594F85C10102088405D
:100DE000304218D021680968090714D5A860206826
:100DF0000168490304D50068000308D5A16C07E029
:100E00000168C90503D4016821F008010160216C63
:100E100009B12046884794F85C1020208840304271
:100E200031D021680968C9062DD5A86094F835002D
:100E300005282068016806D0490347D500680003EB
:100E40001DD4616C1CE021F016010160206841692D
:100E500021F080014161206C08B9A06C20B12068AC
:100E6000016821F00801016094F85C103F2088407F
:100E7000A86084F8358084F83490216D1FE0E16B20
:100E800009B120468847606D00282BD0606DC007EF
:100E900014D0052084F835002068016821F0010194
:100EA00001600098401C0090B84203D82068006898
:100EB000C007F6D184F8358084F83490E16C0029BD
:100EC00010D001B02046BDE8F04308470168C905CD
:100ED000D5D4016821F01001016084F8358084F8D0
:100EE0003490CCE7BDE8F883280000202DE9F041DC
:100EF000044600F0A7F906465CB1022084F83500EC
:100F0000002584F834502068016821F00101016057
:100F10000DE00120BDE8F08100F094F9801B052868
:100F200005D920206065032084F83500F2E72068A9
:100F30000068C007F0D12268116820480140D4E958
:100F400001031843D4E90336334318436369184354
:100F5000A3691843E3691843236A18430843616A85
:100F6000042903D1D4E90B13194308431060206806
:100F70004069666A20F0070130460E4301270428C5
:100F80000CD1A06A0643E06A40B12046FFF7B6FAEA
:100F900020B14020606584F83570BAE7206846616A
:100FA0002046FFF797FA94F85C203F21914081603A
:100FB000656584F835700020ACE700003F8010F0D4
:100FC0002DE9F0410446866D90F834000025012893
:100FD0000DD0012084F8340094F835700020012FE2
:100FE00007D084F8340002252846BDE8F0810220AD
:100FF000FBE7022784F8357060652046FFF7A8FA02
:1010000094F85C103F208840B0602068016841F08F
:1010100016010160206C20B12068016841F00801D0
:1010200001602068016841F001010160DCE7000017
:1010300070B5044600F006F90546601C02D004486D
:101040000078044400F0FEF8401BA042FAD370BDC3
:101050001C0000202DE9F84FDFF8BCA1002201257B
:1010600003264FF00F090AF1040BAAF1040E00BF8A
:101070000B6805FA02F42340A34270D10F7907F000
:101080000307012F01D0022F16D187684FEA4208CB
:1010900006FA08FC27EA0C07D1F80CC00CFA08FC89
:1010A0004CEA070CC0F808C04768A7430C79C4F3A2
:1010B000001494403C4344600C79E443A4070AD0F4
:1010C000C4684FEA420C06FA0CF7BC438F6807FA73
:1010D0000CF72743C7600C7904F00304022C12D1EB
:1010E000D40800EB840CDCF820405707FF0E09FA07
:1010F00007F824EA0804D1F8108008FA07F848EA4B
:101100000408CCF8208004684FEA420C06FA0CF779
:10111000BC430F7907F0030707FA0CF72743076072
:101120004C6814F4403F70D03C4C276847F480472B
:101130002760246822F0030704F480440094384CAC
:1011400007EB040CDCF8084897074FEA177809FA10
:1011500008F7BC43334FB84202D1002724E054E0E3
:10116000314FB84201D101271EE0304FB84201D1C2
:10117000022719E02E4FB84201D1032714E02D4F6A
:10118000B84201D104270FE02B4FB84201D1052707
:101190000AE02A4FB84201D1062705E0284FB8429D
:1011A00001D1072700E0082707FA08F72743CCF802
:1011B0000878DAF800405746D1F804C09C435FEA4B
:1011C000CC2C00D51C433C60DBF800405F46D1F8D6
:1011D00004C09C435FEA8C2C00D51C433C60DEF8C5
:1011E00000407746D1F804C09C435FEA8C3C00D5B0
:1011F0001C433C60084F083F3C68D1F804C09C4346
:101200005FEACC3C00D51C433C60521C102AFFF422
:101210002FAFBDE8F88F0000083C01404438024081
:10122000003001400000024000040240000802407B
:10123000000C02400010024000140240001802405E
:10124000001C024001488068704700001C0000201C
:101250000248816802781144816070471C000020B8
:101260000B4810B5016841F400710160016841F458
:1012700080610160016841F480710160032000F029
:101280006FF80F2000F006F800F024F8002010BDE1
:10129000003C024070B50D4D04464FF47A71287839
:1012A000B1FBF0F00A490968B1FBF0F000F00CFB6B
:1012B00048B9102C07D200222146501E00F030F809
:1012C00000206C6070BD012070BD00001C0000207B
:1012D000280000200A4808B5016841F480410160F7
:1012E000006800F4804000900548001F016841F04C
:1012F00080510160006800F08050009008BD00003F
:1013000044380240002809DB00F01F02012191400F
:101310004009800000F1E020C0F800117047000093
:10132000F0B40E4B1B680C46C3F30223C3F1070550
:10133000042D00D90425191D072901D2002300E03E
:10134000DB1E012606FA05F1491E214099409E4008
:10135000761E16403143F0BC01F0E5BA0CED00E01A
:10136000064900F0070208684FF6FF03184040EAFC
:101370000220034A10430860704700000CED00E0B3
:101380000000FA052DE9F0470E46050065D0DFF8AC
:101390001481D8F80000F7B200F00700B04207D27D
:1013A00088F80070D8F8000000F00700B04254D16F
:1013B00028683D4C810712D5400703D5206840F4CA
:1013C000E05020602878000703D5206840F4604092
:1013D00020602068A96820F0F00008432060287889
:1013E000C0072DD0304968680839012812D002287A
:1013F00013D0032811D00968890700292DDA216844
:1014000021F0030101432160FFF71CFF814641F2F7
:10141000883A0EE009688903EFE709688901ECE77B
:10142000FFF710FFA0EB0901514502D90320BDE8E9
:10143000F0872068696800F00C00B0EB810FEFD1F5
:10144000D8F80010404601F00701B14207D90770F3
:10145000006800F00700B04201D00120E7E72878DB
:10146000400705D52068E96820F4E0500843206073
:101470002878000706D52068296920F4604040EAF2
:10148000C100206000F038F82168084AC1F3031158
:10149000515CC8400649086006480068FFF7FAFE3C
:1014A0000020C4E7003C024008380240C02D00087C
:1014B0002800002020000020044805490068096831
:1014C000044AC1F38221515CC840704728000020C3
:1014D00008380240D02D0008044805490068096812
:1014E000044AC1F34231515CC840704728000020D3
:1014F00008380240D02D0008154810B5006810F0DB
:101500000C02144813D01449042A0FD0082A0ED113
:101510000F4C241F2268236802F03F025B0207D5AC
:101520002068C0F38810A0FB010106E0084610BD4A
:101530002168C1F38811A1FB00010023FEF794FE8E
:101540002168C1F30141491C4900B0FBF1F010BD15
:10155000083802400024F40040787D012DE9F84F5E
:1015600004006ED02078DFF84C93C007A9F1040581
:101570004AD009F104000168C1F38101012908D0B2
:101580000068C0F3810002280AD1D9F800004002A7
:1015900006D52868800337D560680028E1D033E09D
:1015A0006068B0F5803F10D0B0F5A02F286810D04B
:1015B00020F480302860286820F48020286060684B
:1015C000A8B1FFF73FFE06460DE0286840F48030E2
:1015D000F4E740F480202860F7E700BFFFF732FE11
:1015E000801B642873D828688003F7D50CE0FFF7C8
:1015F00029FE064605E000BFFFF724FE801B642895
:10160000F0D828688003F7D42078DFF8AC82800710
:101610004FF0000A3ED5A748001D016811F00C0FDD
:1016200008D00068C0F3810002280BD1D9F800006F
:10163000400207D42868800716D5E068012800D149
:1016400012E033E1E068B8B10120C8F80000FFF70C
:10165000F9FD064605E000BFFFF7F4FD801B0228F8
:10166000C0D828688007F7D52868216920F0F800DD
:1016700040EAC10028600DE0C8F800A0FFF7E2FDD5
:10168000064604E0FFF7DEFD801B02281FD828680D
:101690008007F7D42078000722D5864F87486169F4
:1016A000703771B101210160FFF7CCFD064604E0FF
:1016B000FFF7C8FD801B022809D838688007F7D5D6
:1016C0000EE0C0F800A0FFF7BDFD064605E082E091
:1016D000FFF7B8FD801B02287DD838688007F7D453
:1016E0002078400768D5DFF8CCB100270BF13C0B20
:1016F000DBF80000C0000BD4DBF8001041F0805193
:10170000CBF80010DBF80000012700F080500090BB
:101710006B4E3068C00510D4306840F48070306083
:10172000FFF790FD009005E0FFF78CFD0099401A4F
:10173000022850D83068C005F6D55E4EA0686C36D9
:1017400001280FD00528306810D020F0010030604B
:10175000306820F004003060A068B8B1FFF772FD77
:1017600000900FE0306840F00100F4E740F0040022
:101770003060F7E7FFF766FD0099411A41F28830C3
:10178000814266D830688007F4D50EE0FFF75AFD35
:10179000009007E0FFF756FD0099411A41F28830AA
:1017A000814256D830688007F4D42FB1DBF800109E
:1017B00021F08051CBF80010A069C8B33D49091D44
:1017C0000968C1F3810102294AD00228504607D096
:1017D000C8F8600000E03CE0FFF734FD04463BE061
:1017E0004746C8F86000FFF72DFD064605E000BF3C
:1017F000FFF728FD801B02282BD828688001F7D42A
:10180000D4E907010843A16A2E4A490802EB0141C5
:10181000626A41EA8211084394F82C1040EA01619F
:10182000C9F8001001203866FFF70CFD044606E0F9
:101830003EE000BFFFF706FD001B022809D828681C
:101840008001F7D534E000BFFFF7FCFC001B022845
:1018500002D90320BDE8F88F28688001F4D427E07E
:101860000128F7D0D9F80000E26900F48001914224
:101870001CD1226A00F03F01914217D147F6C07196
:10188000626A0140B1EB821F10D1A26A4FF0FF33B0
:1018900000F4403103EB5202B1EB024F06D194F851
:1018A0002C1000F07060B0EB016F01D00120D1E787
:1018B0000020CFE70438024000004742800E474234
:1018C000007000400000FFFF10B5401EB0F1807FA7
:1018D00001D3012010BD4FF0E02460610F2160179B
:1018E00001F021F80020A06107202061002010BD38
:1018F00010B590F83C20012A22D0012280F83C202B
:10190000CA688C6822F4407222434C6822F48062D8
:1019100022430C6822F4006222430C6922F48052B4
:1019200022434C6922F400522243C969002322F465
:1019300080420A4301684A6480F83C30002010BDB0
:10194000022010BD70B590F83C20012A32D001244D
:1019500080F83C40022280F83D2003685A689D6868
:1019600022F070060A6832435A60134B02689A42AA
:1019700014D0B2F1804F11D0104B9A420ED0104BC0
:101980009A420BD00F4B9A4208D00F4B9A4205D087
:101990000E4B9A4202D00E4B9A4204D1496825F070
:1019A00080031943916080F83D40002180F83C108D
:1019B000084670BD022070BD0000014000040040D8
:1019C00000080040000C00400004014000400140BD
:1019D0000018004010B586B0044614216846FEF792
:1019E000BAFC2368184C002118480222A34212D1E5
:1019F000036843F001030360006800F001000590F4
:101A00004FF470600090CDE901210120CDE9031071
:101A100069460F4813E00F4CA34212D1036843F408
:101A200080730360006800F480700590E0200090EF
:101A3000CDE901210320CDE9031069460648FFF7EF
:101A400009FB06B010BD0000000001403038024024
:101A500000000240000401400020024070B504462E
:101A600090F83C0000260D4601280FD0012084F894
:101A70003C006AB1042A1DD0082A2FD00C2A3FD07E
:101A80000126002084F83C00304670BD022070BD65
:101A9000206800F003FD2068816941F00801816140
:101AA0002068816921F004018161206881692A69C7
:101AB000114311E0206800F021FD2068816941F4A4
:101AC000006181612068816921F480618161206801
:101AD00081692A6941EA02218161D2E7206800F028
:101AE00043FD2068C16941F00801C1612068C169F6
:101AF00021F00401C1612068C1692A69114311E024
:101B0000206800F065FD2068C16941F40061C16191
:101B10002068C16921F48061C1612068C1692A69B6
:101B200041EA0221C161ACE710B5040003D094F88A
:101B30003D0010B107E0012010BD002084F83C00FA
:101B4000204600F01FF8022084F83D00211D206887
:101B500000F02EFC012084F8460084F83E0084F852
:101B60003F0084F8400084F8410084F8420084F883
:101B7000430084F8440084F8450084F83D000020C8
:101B800010BD000008B50C4A01680C48914207D10D
:101B9000016841F001010160006800F0010009E006
:101BA000074A914207D1016841F0020101600068D3
:101BB00000F00200009008BD0000014044380240DF
:101BC0000004014010B50446022249B104290ED098
:101BD000082913D094F84100012816D0012010BD27
:101BE00094F83E000128F9D184F83E200FE094F8E3
:101BF0003F000128F2D184F83F2008E094F840002B
:101C00000128EBD184F8402001E084F84120012232
:101C1000206800F035FC16492068164A884201D039
:101C2000904203D1436C43F40043436420688842EC
:101C300013D0B0F1804F10D00F4988420DD00F491A
:101C400088420AD00E49884207D0904205D00D49FB
:101C5000884202D00C49884204D1816801F0070112
:101C6000062903D0016841F001010160002010BD88
:101C70000000014000040140000400400008004052
:101C8000000C0040004001400018004070477047C1
:101C900070B5040004D094F84100002510B106E0AE
:101CA000012070BD84F84050204600F023F8242025
:101CB00084F841002068C16821F40051C1602046C9
:101CC00000F05AFD2068016921F49041016120680B
:101CD000416921F02A0141612068C16841F4005145
:101CE000C1606564202084F8410084F84200656387
:101CF000002070BD70B586B0064614216846FEF718
:101D00002AFB2049306888423AD11F4800250168E3
:101D100041F480210160006800F4802005901A4899
:101D20001038016841F0040101600068694600F064
:101D3000040005904FF4406000900220CDE90105B9
:101D400003200390072004901048FFF783F9114CFB
:101D50000F4820604FF00060C4E901054014C4E959
:101D6000035065614FF44030A561C4E90750204637
:101D70006562FFF7BBF808B1FEF7FFFBF463A663EB
:101D800006B070BD004800404038024000080240E4
:101D9000286002409803002090F84230202B01D0A8
:101DA0000220704721B11AB10023036300F06ABD1D
:101DB000012070473C48B0F80110C1F30A02A0F5B9
:101DC000CE710A808278D308C27843EA4213C3F303
:101DD0000A034B800379920942EA8303427943EA7A
:101DE0008223C3F30A038B805308827943EAC21328
:101DF000C3F30A03CB801309C27943EA0213C3F386
:101E00000A030B81037AD20942EA4303427A43EA86
:101E10004223C3F30A034B819308827A43EA821375
:101E2000C3F30A038B81C37A520942EAC302CA810F
:101E30008289C2F30A020A82427BD308827B43EA88
:101E40004213C3F30A034B82C37B920942EA830322
:101E5000027C43EA8223C3F30A038B825308427C49
:101E600043EAC213C3F30A03CB821309827C43EA19
:101E70000213C3F30A030B83C37CD20942EA430370
:101E8000027D43EA4223C3F30A034B839308427D56
:101E900043EA8213C3F30A038B83807D520942EA2B
:101EA000C000C88370470000540200207047FEE75E
:101EB0000D4810B50B49016010214160002181607F
:101EC000C16001614161017641768176C176017719
:101ED0004177FEF7C4FD002803D0BDE81040FEF7AF
:101EE0004CBB10BD00640040700200200D4810B5CE
:101EF0000B4901601021416000218160C1600161D6
:101F00004161017641768176C17601774177FEF7AE
:101F1000A6FD002803D0BDE81040FEF72EBB10BD83
:101F20000068004098020020094808B5016841F4A3
:101F3000001101600068002200F4001000901146BA
:101F40000C20FFF7EDF9BDE808400C20FFF7DAB9E7
:101F500030380240154808B5016841F002010160BF
:101F6000016801F002010091016841F00101016086
:101F7000016801F001010091016841F00401016074
:101F8000016801F004010091016841F48071016071
:101F9000016801F480710091016841F080010160E5
:101FA000006800F08000009008BD0000303802405A
:101FB00010B592B000240F941C2168461094FEF7CF
:101FC000CAF9202107A8FEF7C6F92C482A49016062
:101FD000A721C0E9011444F61F61C0E9031444615C
:101FE0008461FFF7A1FD08B1FEF7C7FA0F940FA9AE
:101FF00022481094FFF7A6FC08B1FEF7BEFA602055
:10200000CDE90004029403940494059400226946E7
:102010001A480694FFF722FD08B1FEF7AEFA042233
:1020200069461648FFF71AFD08B1FEF7A6FA08221E
:1020300069461248FFF712FD08B1FEF79EFA0C221E
:1020400069460E48FFF70AFD08B1FEF796FA0794B5
:10205000089409944FF400500A94CDE90B4007A965
:1020600006480E94FFF744FC08B1FEF786FA0348D1
:10207000FFF7B0FC12B010BD00000140C00200200C
:1020800010B592B000240F941C2168461094FEF7FE
:1020900062F9202107A8FEF75EF928482649016069
:1020A000A721C0E9011444F61F61C0E9031444618B
:1020B0008461FFF739FD08B1FEF75FFA0F940FA9AD
:1020C0001E481094FFF73EFC08B1FEF756FA602058
:1020D000CDE9000402940394049405940022694617
:1020E00016480694FFF7BAFC08B1FEF746FA042238
:1020F00069461248FFF7B2FC08B1FEF73EFA082223
:1021000069460E48FFF7AAFC08B1FEF736FA0794B5
:10211000089409944FF400500A94CDE90B4007A9A4
:1021200006480E94FFF7E4FB08B1FEF726FA0348D1
:10213000FFF750FC12B010BD00040140080300205E
:102140000C4810B50A4901600B49416000218160CB
:102150000C22C160C0E904128161C161FFF798FDE2
:10216000002803D0BDE81040FEF707BA10BD0000FC
:102170000048004050030020A0860100FEE7FEE773
:10218000A0B1D0ED101AC0ED111A90ED0F1A80ED2C
:10219000101AC0ED060A80ED070A30EEC00A80ED85
:1021A0000F0A017829B101293BD078E09FED3D0A63
:1021B0007047D0ED010A60EE801AC0ED091AD0ED2B
:1021C0000A0A90ED022A42EE000A30EE410AC0ED02
:1021D0000A0A90ED0D2A80ED0E2A90ED0C2A80ED72
:1021E0000D2A80ED0C0A90ED031A21EE001A80ED05
:1021F0000B1A90ED050AF4EEC00AF1EE10FA09DCB4
:10220000B1EE400AF4EEC00AF1EE10FA02D390EDFE
:102210000A0A01E080ED0A0A31EE800A30EE010A76
:102220002BE070EE410A90ED012A20EE822A80ED2B
:10223000092AD0ED020A60EE800AC0ED0A0AD0ED4C
:102240000D2A72EE200AC0ED0E2AD0ED0C2AC0ED48
:102250000D2AF0EE002A01EE620A30EE210A80ED2E
:102260000C0A90ED031A21EE000A80ED0B0A30EE05
:10227000800AD0ED080A30EE200A80ED080AD0ED81
:10228000040AB4EEE00AF1EE10FA06DCF1EE600AA0
:10229000B4EEE00AF1EE10FA01D2C0ED080A90EDBA
:1022A000080A704700000000002828D0002A26D025
:1022B000017092ED001A80ED011A92ED011A80ED85
:1022C000021A92ED021A80ED031A80ED040A9FEDC6
:1022D0000C0AC0ED050A80ED0E0A80ED0D0A80EDB6
:1022E0000C0A80ED080A80ED0B0A80ED0A0A80EDE9
:1022F000090A80ED110A80ED100A80ED0F0A70477F
:102300000000000070477047FEF7A2BF30B593B0E1
:1023100030216846FEF71FF814210CA8FEF71BF8C1
:102320001D480025016841F080510160006800F0FF
:10233000805011901948016841F4804101600068A3
:10234000022400F48040119001200390102004909A
:10235000009406940820CDE90750A820CDE909048F
:1023600004200B906846FFF7F9F808B172B6FEE753
:102370000CA90F2081E831004FF4A0500F904FF4CA
:102380008050109005210CA8FEF7FCFF002801D01A
:1023900072B6FEE713B030BD403802400070004016
:1023A0000248016841F470010160704788ED00E067
:1023B000F0B50268274B284D284E294F294C4FF085
:1023C000804C984209D0604507D0A84205D0B04261
:1023D00003D0B84201D0A04204D122F0700E4A6866
:1023E00042EA0E0298421BD0604519D0A84217D08D
:1023F000B04215D0B84213D0A04211D01A4DA84215
:102400000ED01A4DA8420BD0194DA84208D0194D34
:10241000A84205D0184DA84202D0184DA84203D1B9
:1024200022F44075CA682A434D6922F080022A438B
:102430008D68C5620D688562984201D0A04201D1C5
:1024400009690163016841F00401016001214161F2
:102450000260F0BD000001400004004000080040A0
:10246000000C0040000401400040014000440140D5
:102470000048014000180040001C004000200040BF
:1024800010B501F01F030121046A99408C430462D6
:10249000016A9A401143016210BD0000F0B5036A61
:1024A000026A22F00102026242688469124E24F03C
:1024B00073050C682C4323F002058B682B430D4DEC
:1024C000A84201D0B04205D123F00807CB683B43B6
:1024D00023F00403A84201D0B04205D14D6922F493
:1024E000407215438A692A434260846149684163A6
:1024F0000362F0BD0000014000040140F0B5026A33
:10250000036A23F010030362436884690D6824F4AE
:10251000E64444EA05248D6822F0200242EA0512CE
:102520000F4D104EA84201D0B04206D1CF6822F024
:10253000800242EA071222F04002A84201D0B042D3
:1025400007D14D6923F4406343EA85038D6943EA6B
:10255000850343608461496881630262F0BD0000C5
:102560000000014000040140F0B5026A036A23F450
:10257000807303624368C46922F4007224F0730517
:102580000C68124E2C438D6842EA05220E4DA8427B
:1025900001D0B04206D1CF6822F4006242EA07229D
:1025A00022F48062A84201D0B04207D14D6923F4E1
:1025B000405343EA05138D6943EA05134360C46140
:1025C0004968C1630262F0BD00000140000401409F
:1025D00030B5046A026A22F4805202624268C3691A
:1025E0000D6823F4E64343EA05238D6824F4005480
:1025F00044EA0534084DA84202D0084DA84204D14F
:102600004D6922F4804242EA85124260C361496802
:102610000164046230BD000000000140000401407C
:1026200070B5846B2068406994F84110C0F3C01005
:102630000025212904D118B1E584204600F08EF848
:102640002068406994F84210C0F38010222904D118
:1026500018B1E585204600F05AF8606C40F0100093
:1026600060642046FFF713FB70BD10B50146806B18
:10267000096809684FF00002C9052ED4C2850168B7
:102680000C3151E8003F23F4807341E80034002C02
:10269000F5D10168143151E8003F23F0010341E80E
:1026A0000034002CF5D10168143151E8003F23F0CB
:1026B000400341E80034002CF5D1202180F842107D
:1026C000016B012909D101680C3151E8003F23F069
:1026D000100341E80034002CF5D14263016B01295D
:1026E00002D0FFF767FB10BD818DFFF7CFFA10BD59
:1026F00010B5806B01214163016B012902D0FFF706
:10270000D5FB10BD818D4908FFF7C0FA10BD0168E7
:102710000C3151E8002F22F4907241E80023002B85
:10272000F5D10168143151E8002F22F0010241E88F
:102730000023002BF5D1016B012909D101680C316F
:1027400051E8002F22F0100241E80023002BF5D1C0
:10275000202180F8421000210163704701680C318C
:1027600051E8002F22F0C00241E80023002BF5D1F0
:10277000202180F84110704770B504460068016957
:10278000E26821F44051114301612169A068E269C6
:1027900008436169114308432168CA6849F20C6320
:1027A0009A430243CA6020684169A26921F44071DA
:1027B0001143416131492068884202D03049884242
:1027C00002D1FEF789FE01E0FEF776FEE269002302
:1027D000192164253226B2F5004F626828D0A0FB8B
:1027E0000101930F9200FDF73FFD0146B0FBF5F0AC
:1027F0006FF01802504301EB800006EB0010B0FBB5
:10280000F5F000F0F002B1FBF5F002EB0012B1FBC5
:10281000F5F06FF01803584301EB800006EB001051
:10282000B0FBF5F000F00F0021681044886070BD27
:10283000A0FB010192185B41FDF716FD0146B0FBBC
:10284000F5F00201B1FBF5F06FF01803584301EB0E
:10285000800006EBC000B0FBF5F000F0F80002EBE2
:102860004002B1FBF5F0584301EB800006EBC000DD
:10287000B0FBF5F000F00700D6E7000000100140C3
:102880000014014038B58162044682850020134659
:102890006064222284F84220E56B1F4AEA63E56BFC
:1028A0001E4A2A64E56B1E4AEA64E26B10650A461A
:1028B0002168E06B091DFEF783FB30B110206064D6
:1028C000202084F84200012038BD2068016840685B
:1028D0000090206948B120680C3050E8001F41F496
:1028E000807140E80012002AF5D12068143050E8C9
:1028F000001F41F0010140E80012002AF5D12068D4
:10290000143050E8001F41F0400140E80012002A56
:10291000F5D1002038BD00006B260008F126000824
:1029200021260008FEE70907090E002804DB00F154
:10293000E02080F80014704700F00F0000F1E02064
:1029400080F8141D7047000070B5194C0A21B4F9C5
:10295000000000F0D3F9174D40420A212860B4F975
:10296000000000F0CBF940426860B4F900000A2191
:1029700000F0C4F94042A860B4F900000A2100F058
:10298000BDF940420C4AE860B4F902001368002126
:10299000C0F578705963126800EBC00303EB0010B8
:1029A0009063064A136859631168886370BD00001C
:1029B000B8000020A4000020C0020020080300206E
:1029C00000B58BB000200121CDE9060108910090EF
:1029D0000190029003900590049069460C48FDF721
:1029E0003FFE0B48FEF77EF902210948FDF7C7FDBF
:1029F0000E200990059069460648FDF731FE05480E
:102A0000FEF770F902210348FDF7B9FD0BB000BDD8
:102A1000700200209802002070B5174C0A21B4F90A
:102A2000000000F06BF9154D0A212860B4F9000090
:102A300000F064F96860B4F900000A2100F05EF962
:102A4000A860B4F900000A2100F058F9E860B4F970
:102A50000200A0F5787000EBC00101EB00120849FC
:102A60000868426309680020886306490B685A6356
:102A70000968886370BD0000B8000020A400002031
:102A8000C00200200803002000F00300024900EB10
:102A9000800001EB400070472C0000200048704788
:102AA0005400002070B5194C0A21B4F9000000F060
:102AB00025F9174D40420A212860B4F9000000F0C2
:102AC0001DF96860B4F900000A2100F017F94042CE
:102AD000A860B4F900000A2100F010F90D4AE8607E
:102AE000B4F9020013686FF01801A0F57870414343
:102AF000596312680021916300EBC00202EB0012DF
:102B0000054803685A630068816370BDB8000020FF
:102B1000A4000020C0020020080300202DED028B3D
:102B2000FEF79EFBFFF7F2FBFFF714FAFFF7FCF945
:102B3000FFF7BEF9FFF7DAF9FFF73AFAFFF7A0FA65
:102B4000FFF7FEFAFFF73CFF192263496348FFF7DE
:102B500023F900249FED628ADFED628A624D00BF97
:102B600004EBC40005EBC000F0EE480AB0EE680AC2
:102B70005E4A0021FFF798FB641C052CF0DB002067
:102B8000FFF782FF544E103E30600120FFF77CFFBC
:102B900070600220FFF778FFB0600320FFF774FF3A
:102BA000F060FFF77BFFDFF848810021C8F80000E4
:102BB0005048FFF707F804214E48FFF703F80021BB
:102BC0004D48FEF7FFFF04214B48FEF7FBFFA6F53B
:102BD000C67B40F27B3AA946A6F5D077BBF9000048
:102BE00040F22735A0F2E1315C46A94202D2FFF75C
:102BF00013FF07E06538504502D2FFF7A5FE01E05C
:102C000000F080F8B4F90200A0F2E131A94202D24A
:102C100000F0A8F807E06538504502D2FFF742FF00
:102C200001E000F06FF800244FEA090557F824008E
:102C300000EE100A56F82400F8EEC00AB0F90200BF
:102C400000EE100A04EBC40005EBC000B8EEC00AA9
:102C5000FFF796FA641C042CE8DBD8F8000097ED27
:102C6000040AB0F90200F8EEC00A00EE100A1A4891
:102C7000B8EEC00A5838FFF783FA95ED3E0ABDEE6C
:102C8000C00A10EE100A95ED2C0A03B2BDEEC00A80
:102C900010EE100A95ED1A0A02B2BDEEC00A10EE4F
:102CA000100A95ED080A01B2BDEEC00A10EE100A36
:102CB00000B2FDF7C1FB95ED500A00231A46BDEEA8
:102CC000C00A194610EE100A00B2FDF7D9FB142015
:102CD000FEF7AEF982E70000540200205003002006
:102CE0000000FA4400007A46DC000020AC2D000809
:102CF00014000020C002002008030020A0F5787016
:102D00004843704770B5134C0021B4F90000FFF739
:102D1000F5FF114D00212860B4F90000FFF7EEFF28
:102D20006860B4F900000021FFF7E8FFA860B4F97B
:102D300000000021FFF7E2FF0849E86000200A6870
:102D400050630968886306490A68506309688863A4
:102D500070BD0000B8000020A4000020C0020020C8
:102D6000080300200B480C4AB0F902001368A0F5D4
:102D7000787000EBC00101EB00115963126800216B
:102D800091636FF018025043044A13685863106847
:102D900081637047B8000020C002002008030020B3
:102DA0004FF04070E1EE100A704700000000A040B4
:102DB000CDCCCC3D00000000000610160006101619
:102DC00000000000000000000102030406070809DB
:102DD0000000000001020304F82D0008000000209C
:102DE0002C000000C4010008242E00082C00002044
:102DF0002C0A0000E00100080000000000000000B4
:102E000000000000000000000000000000000000C2
:102E100000000000010000001000000000000000A1
:042E20000024F40096
:040000050800018965
:00000001FF
